{
  "contractName": "Contest",
  "abi": [
    {
      "constant": true,
      "inputs": [
        {
          "name": "",
          "type": "address"
        }
      ],
      "name": "voters",
      "outputs": [
        {
          "name": "",
          "type": "bool"
        }
      ],
      "payable": false,
      "stateMutability": "view",
      "type": "function"
    },
    {
      "constant": true,
      "inputs": [
        {
          "name": "",
          "type": "uint256"
        }
      ],
      "name": "contestants",
      "outputs": [
        {
          "name": "id",
          "type": "uint256"
        },
        {
          "name": "name",
          "type": "bytes32"
        },
        {
          "name": "voteCount",
          "type": "uint256"
        }
      ],
      "payable": false,
      "stateMutability": "view",
      "type": "function"
    },
    {
      "constant": true,
      "inputs": [],
      "name": "contestantsCount",
      "outputs": [
        {
          "name": "",
          "type": "uint256"
        }
      ],
      "payable": false,
      "stateMutability": "view",
      "type": "function"
    },
    {
      "inputs": [],
      "payable": false,
      "stateMutability": "nonpayable",
      "type": "constructor"
    },
    {
      "anonymous": false,
      "inputs": [
        {
          "indexed": true,
          "name": "_contestantId",
          "type": "uint256"
        }
      ],
      "name": "votedEvent",
      "type": "event"
    },
    {
      "constant": false,
      "inputs": [
        {
          "name": "_name",
          "type": "bytes32"
        }
      ],
      "name": "addContestant",
      "outputs": [],
      "payable": false,
      "stateMutability": "nonpayable",
      "type": "function"
    },
    {
      "constant": false,
      "inputs": [
        {
          "name": "_contestantId",
          "type": "uint256"
        }
      ],
      "name": "vote",
      "outputs": [],
      "payable": false,
      "stateMutability": "nonpayable",
      "type": "function"
    },
    {
      "constant": false,
      "inputs": [
        {
          "name": "snd",
          "type": "address"
        },
        {
          "name": "_contestantId",
          "type": "uint256"
        }
      ],
      "name": "doVote",
      "outputs": [],
      "payable": false,
      "stateMutability": "nonpayable",
      "type": "function"
    }
  ],
  "bytecode": "0x608060405234801561001057600080fd5b506100497f546f6d0000000000000000000000000000000000000000000000000000000000610086640100000000026401000000009004565b6100817f4a65727279000000000000000000000000000000000000000000000000000000610086640100000000026401000000009004565b6100f9565b6002600081548092919060010191905055506060604051908101604052806002548152602001826000191681526020016000815250600080600254815260200190815260200160002060008201518160000155602082015181600101906000191690556040820151816002015590505050565b610424806101086000396000f300608060405260043610610078576000357c0100000000000000000000000000000000000000000000000000000000900463ffffffff1680630121b93f1461007d57806320f67f16146100aa5780633a323e68146100db578063a3ec138d14610128578063dfd50f5214610183578063ec63d1c8146101da575b600080fd5b34801561008957600080fd5b506100a860048036038101908080359060200190929190505050610205565b005b3480156100b657600080fd5b506100d96004803603810190808035600019169060200190929190505050610212565b005b3480156100e757600080fd5b50610126600480360381019080803573ffffffffffffffffffffffffffffffffffffffff16906020019092919080359060200190929190505050610285565b005b34801561013457600080fd5b50610169600480360381019080803573ffffffffffffffffffffffffffffffffffffffff1690602001909291905050506103a8565b604051808215151515815260200191505060405180910390f35b34801561018f57600080fd5b506101ae600480360381019080803590602001909291905050506103c8565b604051808481526020018360001916600019168152602001828152602001935050505060405180910390f35b3480156101e657600080fd5b506101ef6103f2565b6040518082815260200191505060405180910390f35b61020f3382610285565b50565b6002600081548092919060010191905055506060604051908101604052806002548152602001826000191681526020016000815250600080600254815260200190815260200160002060008201518160000155602082015181600101906000191690556040820151816002015590505050565b600160008373ffffffffffffffffffffffffffffffffffffffff1673ffffffffffffffffffffffffffffffffffffffff16815260200190815260200160002060009054906101000a900460ff161515156102de57600080fd5b6000811180156102f057506002548111155b15156102fb57600080fd5b6000808281526020019081526020016000206002016000815480929190600101919050555060018060008473ffffffffffffffffffffffffffffffffffffffff1673ffffffffffffffffffffffffffffffffffffffff16815260200190815260200160002060006101000a81548160ff021916908315150217905550807ffff3c900d938d21d0990d786e819f29b8d05c1ef587b462b939609625b684b1660405160405180910390a25050565b60016020528060005260406000206000915054906101000a900460ff1681565b60006020528060005260406000206000915090508060000154908060010154908060020154905083565b600254815600a165627a7a72305820a615d74ccc1138fe9304125bd540d291c7656fb0bbbd1878f1e31378e945d4a40029",
  "source": "pragma solidity ^0.4.24;\r\n\r\n//migrations directory contains things of the previous version or application or other platform to blockchain deployment\r\n//node modules contains all the dependencies\r\n//src web app folder which contains app for user\r\n//test use for testing app\r\n\r\n//Creating contract\r\ncontract Contest {\r\n\t//declaring variables\r\n\tstruct Contestant{\r\n\t\tuint id;// unsigned\r\n\t\tbytes32 name;\r\n\t\tuint voteCount;\r\n\t}\r\n\t// map is used \r\n\tmapping(uint => Contestant) public contestants;\r\n\t//\t is a key for a contestant object in the map\r\n\t//To save the list of users/accounts  who already casted vote\r\n\tmapping(address => bool) public voters;\r\n\t// number of contestants is stored in a variable as map.size() is not avaiable\r\n\tuint public contestantsCount;\r\n\r\n\tevent votedEvent (\r\n\t\tuint indexed _contestantId\r\n\t);\r\n\t// function to add contestant;\r\n\tconstructor() public {\r\n\t\taddContestant(\"Tom\");\r\n\t\taddContestant(\"Jerry\");\r\n\t}\r\n\tfunction addContestant (bytes32 _name) public {\r\n\t\t//name starts with _ because it is private variable\r\n\t\tcontestantsCount++;\r\n\t\tcontestants[contestantsCount] = Contestant(contestantsCount,_name,0);\r\n\r\n\t}\r\n\r\n\tfunction vote(uint _contestantId) public{\r\n\t\tdoVote(msg.sender,_contestantId);// for testing propose seprated\r\n\t}\r\n\tfunction doVote (address snd,uint _contestantId) public{\r\n\t\t//restricting the person who already casted the vote\r\n\t\trequire(!voters[snd]);\r\n\t\trequire(_contestantId > 0 && _contestantId <= contestantsCount );\r\n\t\t\r\n\t\tcontestants[_contestantId].voteCount ++;\r\n\t\tvoters[snd] = true;\r\n\t\t//msg.sender is metadata the address of the user who casted the vote\r\n\t\temit votedEvent(_contestantId);\r\n\r\n\r\n\t}\r\n\r\n\t//declaring contructor\r\n\t\r\n\t// get and set functions not required to be set explicitily\r\n\t// because solidity do it for us\r\n\t// In command prompt to run use \"truffle migrate\"\r\n\t// in node js command prompt\r\n\t/*\r\n\tif problem in building delete the json files\r\n\tway to access from the network\r\n\tput \"truffle console\"\r\n\tIt is use to get JS promise\r\n\tlike\r\n\r\n\tcontest.deployed().then(function(instance){ app = instance })\r\n\t\r\n\tit should be in a single line\r\n\r\n\tafter running this the \"app\" has instance of class\r\n\tContest\r\n\tapp.contestant() gives 'Tom' output in command prompt\r\n\tapp.address gives current address in which we joined\r\n\teach deployment cost some ether to pay to miners\r\n\t\r\n\tstructure of contestant is made (it is same as class without contructor)\r\n\t\r\n\tapp.contestants(1)\r\n\tIt give instance of contestants map at key 1\r\n\tapp.contestantsCount()\r\n\tnumber of contestants\r\n\r\n\tdata is saved in the blockchain network not in single computer\r\n\tto initialize we have to use callback of JS promise func for that like we put instance in app\r\n\r\n\tmake variable of contestant\r\n\tapp.contestants(1).then{function(c) { contestant  = c }}\r\n\r\n\tto access the id\r\n\tcontestant[0]\r\n\r\n\tto get in normal form\r\n\tcontestant[0].toNumber()\r\n\r\n\tweb3 js used for frontend\r\n\tweb3.eth.accounts\r\n\tIt gives all accounts in Blockchain\r\n\ttheir address\r\n\tweb3.eth.accounts[1]\r\n\tit gives a single address\r\n\r\n\tmocha and chai use for testing\r\n\t\r\n\r\n\r\n\r\n\t*/\r\n\r\n}",
  "sourcePath": "D:\\contest\\contracts\\contest.sol",
  "compiler": {
    "name": "solc",
    "version": "0.4.24+commit.e67f0147.Emscripten.clang"
  },
  "schemaVersion": "2.0.1",
  "updatedAt": "2019-03-22T13:46:54.528Z"
}