{
  "contractName": "TestContest",
  "abi": [
    {
      "constant": false,
      "inputs": [
        {
          "name": "_contestantId",
          "type": "uint256"
        }
      ],
      "name": "vote",
      "outputs": [],
      "payable": false,
      "stateMutability": "nonpayable",
      "type": "function"
    },
    {
      "constant": false,
      "inputs": [
        {
          "name": "_name",
          "type": "bytes32"
        }
      ],
      "name": "addContestant",
      "outputs": [],
      "payable": false,
      "stateMutability": "nonpayable",
      "type": "function"
    },
    {
      "constant": false,
      "inputs": [
        {
          "name": "snd",
          "type": "address"
        },
        {
          "name": "_contestantId",
          "type": "uint256"
        }
      ],
      "name": "doVote",
      "outputs": [],
      "payable": false,
      "stateMutability": "nonpayable",
      "type": "function"
    },
    {
      "constant": true,
      "inputs": [
        {
          "name": "",
          "type": "address"
        }
      ],
      "name": "voters",
      "outputs": [
        {
          "name": "",
          "type": "bool"
        }
      ],
      "payable": false,
      "stateMutability": "view",
      "type": "function"
    },
    {
      "constant": true,
      "inputs": [
        {
          "name": "",
          "type": "uint256"
        }
      ],
      "name": "contestants",
      "outputs": [
        {
          "name": "id",
          "type": "uint256"
        },
        {
          "name": "name",
          "type": "bytes32"
        },
        {
          "name": "voteCount",
          "type": "uint256"
        }
      ],
      "payable": false,
      "stateMutability": "view",
      "type": "function"
    },
    {
      "constant": true,
      "inputs": [],
      "name": "contestantsCount",
      "outputs": [
        {
          "name": "",
          "type": "uint256"
        }
      ],
      "payable": false,
      "stateMutability": "view",
      "type": "function"
    },
    {
      "anonymous": false,
      "inputs": [
        {
          "indexed": true,
          "name": "_contestantId",
          "type": "uint256"
        }
      ],
      "name": "votedEvent",
      "type": "event"
    },
    {
      "constant": false,
      "inputs": [],
      "name": "testAddContestant",
      "outputs": [],
      "payable": false,
      "stateMutability": "nonpayable",
      "type": "function"
    },
    {
      "constant": false,
      "inputs": [],
      "name": "testVote",
      "outputs": [],
      "payable": false,
      "stateMutability": "nonpayable",
      "type": "function"
    }
  ],
  "bytecode": "0x608060405261003c7f546f6d0000000000000000000000000000000000000000000000000000000000610079640100000000026401000000009004565b6100747f4a65727279000000000000000000000000000000000000000000000000000000610079640100000000026401000000009004565b6100ec565b6002600081548092919060010191905055506060604051908101604052806002548152602001826000191681526020016000815250600080600254815260200190815260200160002060008201518160000155602082015181600101906000191690556040820151816002015590505050565b610885806100fb6000396000f30060806040526004361061008e576000357c0100000000000000000000000000000000000000000000000000000000900463ffffffff1680630121b93f1461009357806320f67f16146100c0578063301d6db8146100f15780633a323e6814610108578063860c5ed614610155578063a3ec138d1461016c578063dfd50f52146101c7578063ec63d1c81461021e575b600080fd5b34801561009f57600080fd5b506100be60048036038101908080359060200190929190505050610249565b005b3480156100cc57600080fd5b506100ef6004803603810190808035600019169060200190929190505050610256565b005b3480156100fd57600080fd5b506101066102c9565b005b34801561011457600080fd5b50610153600480360381019080803573ffffffffffffffffffffffffffffffffffffffff16906020019092919080359060200190929190505050610520565b005b34801561016157600080fd5b5061016a610643565b005b34801561017857600080fd5b506101ad600480360381019080803573ffffffffffffffffffffffffffffffffffffffff169060200190929190505050610809565b604051808215151515815260200191505060405180910390f35b3480156101d357600080fd5b506101f260048036038101908080359060200190929190505050610829565b604051808481526020018360001916600019168152602001828152602001935050505060405180910390f35b34801561022a57600080fd5b50610233610853565b6040518082815260200191505060405180910390f35b6102533382610520565b50565b6002600081548092919060010191905055506060604051908101604052806002548152602001826000191681526020016000815250600080600254815260200190815260200160002060008201518160000155602082015181600101906000191690556040820151816002015590505050565b6000807f616263000000000000000000000000000000000000000000000000000000000091506103187f6162630000000000000000000000000000000000000000000000000000000000610256565b6000806002548152602001908152602001600020905060025481600001541415156103d1576040517f08c379a00000000000000000000000000000000000000000000000000000000081526004018080602001828103825260348152602001807f546865204964206973206e6f7420636f727265637420666f7220636f6e74657381526020017f74616e742077697468206e616d65203a2061626300000000000000000000000081525060400191505060405180910390fd5b816000191681600101546000191614151561047a576040517f08c379a00000000000000000000000000000000000000000000000000000000081526004018080602001828103825260308152602001807f546865204e616d65206973206e6f7420636f7272656374206e616d652073686f81526020017f756c6420686164206265656e206162630000000000000000000000000000000081525060400191505060405180910390fd5b6000816002015414151561051c576040517f08c379a00000000000000000000000000000000000000000000000000000000081526004018080602001828103825260378152602001807f546865206e756d626572206f6620766f746573206973206e6f7420636f72726581526020017f63746c7920696e7469616c697a656420666f722061626300000000000000000081525060400191505060405180910390fd5b5050565b600160008373ffffffffffffffffffffffffffffffffffffffff1673ffffffffffffffffffffffffffffffffffffffff16815260200190815260200160002060009054906101000a900460ff1615151561057957600080fd5b60008111801561058b57506002548111155b151561059657600080fd5b6000808281526020019081526020016000206002016000815480929190600101919050555060018060008473ffffffffffffffffffffffffffffffffffffffff1673ffffffffffffffffffffffffffffffffffffffff16815260200190815260200160002060006101000a81548160ff021916908315150217905550807ffff3c900d938d21d0990d786e819f29b8d05c1ef587b462b939609625b684b1660405160405180910390a25050565b600080600080925073dd2d1e8c04672cbdb34e04ddf621efd96f13150b915061068b7f78797a0000000000000000000000000000000000000000000000000000000000610256565b6000808481526020019081526020016000206002015490506106ad8284610520565b600080848152602001908152602001600020600201546001820114151561073c576040517f08c379a00000000000000000000000000000000000000000000000000000000081526004018080602001828103825260208152602001807f54686520766f746520636f756e7420646964206e6f7420696e6372656173656481525060200191505060405180910390fd5b60011515600160008473ffffffffffffffffffffffffffffffffffffffff1673ffffffffffffffffffffffffffffffffffffffff16815260200190815260200160002060009054906101000a900460ff161515141515610804576040517f08c379a00000000000000000000000000000000000000000000000000000000081526004018080602001828103825260138152602001807f54686520766f746572206973206d61726b65640000000000000000000000000081525060200191505060405180910390fd5b505050565b60016020528060005260406000206000915054906101000a900460ff1681565b60006020528060005260406000206000915090508060000154908060010154908060020154905083565b600254815600a165627a7a72305820b9fbff3b532e4428f50995efcbde416e16a584bb57a0d07f750472d315a9ae4a0029",
  "source": "pragma solidity ^0.4.24;\r\n\r\nimport \"./contest.sol\";\r\n\r\n\r\ncontract TestContest is Contest {\r\n    //function to compare 2 \r\n   \tfunction  testAddContestant () public{\r\n\t\tbytes32 tname  = \"abc\"; //test name\r\n\t\taddContestant(\"abc\");\r\n\t\tContestant storage tmp = contestants[contestantsCount];\r\n\r\n\t\trequire (tmp.id == contestantsCount,\"The Id is not correct for contestant with name : abc\");\r\n\t\trequire (tmp.name == tname,\"The Name is not correct name should had been abc\" );\r\n\t\trequire (tmp.voteCount == 0,\"The number of votes is not correctly intialized for abc\" );\r\n\t}\r\n\r\n\tfunction testVote () public{\r\n\t\tuint tid = 0;//testid\r\n\t\taddress sender = 0xDd2d1e8C04672CBdb34e04dDf621efd96f13150B;\r\n\t\taddContestant(\"xyz\");// So there is atleast 1 entry to check function working\r\n\t\tuint intval = contestants[tid].voteCount;\r\n\t\tdoVote(sender,tid);\r\n\t\trequire (intval+1 == contestants[tid].voteCount,\"The vote count did not increased\");\r\n\t\trequire (voters[sender] == true,\"The voter is marked\");\r\n\t}\r\n\t\r\n\t\r\n}\r\n\r\n",
  "sourcePath": "D:\\contest\\contracts\\test_contest.sol",
  "compiler": {
    "name": "solc",
    "version": "0.4.24+commit.e67f0147.Emscripten.clang"
  },
  "schemaVersion": "2.0.1",
  "updatedAt": "2019-03-22T13:46:52.839Z"
}